{
  "contractName": "TurfGuardian",
  "abi": [
    {
      "inputs": [
        {
          "internalType": "address",
          "name": "initialOwner",
          "type": "address"
        }
      ],
      "stateMutability": "nonpayable",
      "type": "constructor"
    },
    {
      "inputs": [
        {
          "internalType": "address",
          "name": "sender",
          "type": "address"
        },
        {
          "internalType": "uint256",
          "name": "tokenId",
          "type": "uint256"
        },
        {
          "internalType": "address",
          "name": "owner",
          "type": "address"
        }
      ],
      "name": "ERC721IncorrectOwner",
      "type": "error"
    },
    {
      "inputs": [
        {
          "internalType": "address",
          "name": "operator",
          "type": "address"
        },
        {
          "internalType": "uint256",
          "name": "tokenId",
          "type": "uint256"
        }
      ],
      "name": "ERC721InsufficientApproval",
      "type": "error"
    },
    {
      "inputs": [
        {
          "internalType": "address",
          "name": "approver",
          "type": "address"
        }
      ],
      "name": "ERC721InvalidApprover",
      "type": "error"
    },
    {
      "inputs": [
        {
          "internalType": "address",
          "name": "operator",
          "type": "address"
        }
      ],
      "name": "ERC721InvalidOperator",
      "type": "error"
    },
    {
      "inputs": [
        {
          "internalType": "address",
          "name": "owner",
          "type": "address"
        }
      ],
      "name": "ERC721InvalidOwner",
      "type": "error"
    },
    {
      "inputs": [
        {
          "internalType": "address",
          "name": "receiver",
          "type": "address"
        }
      ],
      "name": "ERC721InvalidReceiver",
      "type": "error"
    },
    {
      "inputs": [
        {
          "internalType": "address",
          "name": "sender",
          "type": "address"
        }
      ],
      "name": "ERC721InvalidSender",
      "type": "error"
    },
    {
      "inputs": [
        {
          "internalType": "uint256",
          "name": "tokenId",
          "type": "uint256"
        }
      ],
      "name": "ERC721NonexistentToken",
      "type": "error"
    },
    {
      "inputs": [
        {
          "internalType": "address",
          "name": "owner",
          "type": "address"
        }
      ],
      "name": "OwnableInvalidOwner",
      "type": "error"
    },
    {
      "inputs": [
        {
          "internalType": "address",
          "name": "account",
          "type": "address"
        }
      ],
      "name": "OwnableUnauthorizedAccount",
      "type": "error"
    },
    {
      "anonymous": false,
      "inputs": [
        {
          "indexed": true,
          "internalType": "address",
          "name": "owner",
          "type": "address"
        },
        {
          "indexed": true,
          "internalType": "address",
          "name": "approved",
          "type": "address"
        },
        {
          "indexed": true,
          "internalType": "uint256",
          "name": "tokenId",
          "type": "uint256"
        }
      ],
      "name": "Approval",
      "type": "event"
    },
    {
      "anonymous": false,
      "inputs": [
        {
          "indexed": true,
          "internalType": "address",
          "name": "owner",
          "type": "address"
        },
        {
          "indexed": true,
          "internalType": "address",
          "name": "operator",
          "type": "address"
        },
        {
          "indexed": false,
          "internalType": "bool",
          "name": "approved",
          "type": "bool"
        }
      ],
      "name": "ApprovalForAll",
      "type": "event"
    },
    {
      "anonymous": false,
      "inputs": [
        {
          "indexed": true,
          "internalType": "uint256",
          "name": "bookingId",
          "type": "uint256"
        },
        {
          "indexed": true,
          "internalType": "address",
          "name": "booker",
          "type": "address"
        },
        {
          "indexed": false,
          "internalType": "uint256",
          "name": "startTime",
          "type": "uint256"
        },
        {
          "indexed": false,
          "internalType": "uint256",
          "name": "endTime",
          "type": "uint256"
        },
        {
          "indexed": false,
          "internalType": "string",
          "name": "turfId",
          "type": "string"
        }
      ],
      "name": "BookingCreated",
      "type": "event"
    },
    {
      "anonymous": false,
      "inputs": [
        {
          "indexed": true,
          "internalType": "address",
          "name": "previousOwner",
          "type": "address"
        },
        {
          "indexed": true,
          "internalType": "address",
          "name": "newOwner",
          "type": "address"
        }
      ],
      "name": "OwnershipTransferred",
      "type": "event"
    },
    {
      "anonymous": false,
      "inputs": [
        {
          "indexed": true,
          "internalType": "address",
          "name": "from",
          "type": "address"
        },
        {
          "indexed": true,
          "internalType": "address",
          "name": "to",
          "type": "address"
        },
        {
          "indexed": true,
          "internalType": "uint256",
          "name": "tokenId",
          "type": "uint256"
        }
      ],
      "name": "Transfer",
      "type": "event"
    },
    {
      "inputs": [
        {
          "internalType": "address",
          "name": "to",
          "type": "address"
        },
        {
          "internalType": "uint256",
          "name": "tokenId",
          "type": "uint256"
        }
      ],
      "name": "approve",
      "outputs": [],
      "stateMutability": "nonpayable",
      "type": "function"
    },
    {
      "inputs": [
        {
          "internalType": "address",
          "name": "owner",
          "type": "address"
        }
      ],
      "name": "balanceOf",
      "outputs": [
        {
          "internalType": "uint256",
          "name": "",
          "type": "uint256"
        }
      ],
      "stateMutability": "view",
      "type": "function",
      "constant": true
    },
    {
      "inputs": [
        {
          "internalType": "uint256",
          "name": "",
          "type": "uint256"
        }
      ],
      "name": "bookings",
      "outputs": [
        {
          "internalType": "address",
          "name": "booker",
          "type": "address"
        },
        {
          "internalType": "uint256",
          "name": "startTime",
          "type": "uint256"
        },
        {
          "internalType": "uint256",
          "name": "endTime",
          "type": "uint256"
        },
        {
          "internalType": "string",
          "name": "metadataURI",
          "type": "string"
        },
        {
          "internalType": "uint256",
          "name": "price",
          "type": "uint256"
        },
        {
          "internalType": "string",
          "name": "turfId",
          "type": "string"
        }
      ],
      "stateMutability": "view",
      "type": "function",
      "constant": true
    },
    {
      "inputs": [
        {
          "internalType": "uint256",
          "name": "",
          "type": "uint256"
        }
      ],
      "name": "exists",
      "outputs": [
        {
          "internalType": "bool",
          "name": "",
          "type": "bool"
        }
      ],
      "stateMutability": "view",
      "type": "function",
      "constant": true
    },
    {
      "inputs": [
        {
          "internalType": "uint256",
          "name": "tokenId",
          "type": "uint256"
        }
      ],
      "name": "getApproved",
      "outputs": [
        {
          "internalType": "address",
          "name": "",
          "type": "address"
        }
      ],
      "stateMutability": "view",
      "type": "function",
      "constant": true
    },
    {
      "inputs": [
        {
          "internalType": "address",
          "name": "owner",
          "type": "address"
        },
        {
          "internalType": "address",
          "name": "operator",
          "type": "address"
        }
      ],
      "name": "isApprovedForAll",
      "outputs": [
        {
          "internalType": "bool",
          "name": "",
          "type": "bool"
        }
      ],
      "stateMutability": "view",
      "type": "function",
      "constant": true
    },
    {
      "inputs": [],
      "name": "name",
      "outputs": [
        {
          "internalType": "string",
          "name": "",
          "type": "string"
        }
      ],
      "stateMutability": "view",
      "type": "function",
      "constant": true
    },
    {
      "inputs": [],
      "name": "nextBookingId",
      "outputs": [
        {
          "internalType": "uint256",
          "name": "",
          "type": "uint256"
        }
      ],
      "stateMutability": "view",
      "type": "function",
      "constant": true
    },
    {
      "inputs": [],
      "name": "owner",
      "outputs": [
        {
          "internalType": "address",
          "name": "",
          "type": "address"
        }
      ],
      "stateMutability": "view",
      "type": "function",
      "constant": true
    },
    {
      "inputs": [
        {
          "internalType": "uint256",
          "name": "tokenId",
          "type": "uint256"
        }
      ],
      "name": "ownerOf",
      "outputs": [
        {
          "internalType": "address",
          "name": "",
          "type": "address"
        }
      ],
      "stateMutability": "view",
      "type": "function",
      "constant": true
    },
    {
      "inputs": [],
      "name": "renounceOwnership",
      "outputs": [],
      "stateMutability": "nonpayable",
      "type": "function"
    },
    {
      "inputs": [
        {
          "internalType": "address",
          "name": "from",
          "type": "address"
        },
        {
          "internalType": "address",
          "name": "to",
          "type": "address"
        },
        {
          "internalType": "uint256",
          "name": "tokenId",
          "type": "uint256"
        }
      ],
      "name": "safeTransferFrom",
      "outputs": [],
      "stateMutability": "nonpayable",
      "type": "function"
    },
    {
      "inputs": [
        {
          "internalType": "address",
          "name": "from",
          "type": "address"
        },
        {
          "internalType": "address",
          "name": "to",
          "type": "address"
        },
        {
          "internalType": "uint256",
          "name": "tokenId",
          "type": "uint256"
        },
        {
          "internalType": "bytes",
          "name": "data",
          "type": "bytes"
        }
      ],
      "name": "safeTransferFrom",
      "outputs": [],
      "stateMutability": "nonpayable",
      "type": "function"
    },
    {
      "inputs": [
        {
          "internalType": "address",
          "name": "operator",
          "type": "address"
        },
        {
          "internalType": "bool",
          "name": "approved",
          "type": "bool"
        }
      ],
      "name": "setApprovalForAll",
      "outputs": [],
      "stateMutability": "nonpayable",
      "type": "function"
    },
    {
      "inputs": [
        {
          "internalType": "bytes4",
          "name": "interfaceId",
          "type": "bytes4"
        }
      ],
      "name": "supportsInterface",
      "outputs": [
        {
          "internalType": "bool",
          "name": "",
          "type": "bool"
        }
      ],
      "stateMutability": "view",
      "type": "function",
      "constant": true
    },
    {
      "inputs": [],
      "name": "symbol",
      "outputs": [
        {
          "internalType": "string",
          "name": "",
          "type": "string"
        }
      ],
      "stateMutability": "view",
      "type": "function",
      "constant": true
    },
    {
      "inputs": [
        {
          "internalType": "uint256",
          "name": "tokenId",
          "type": "uint256"
        }
      ],
      "name": "tokenURI",
      "outputs": [
        {
          "internalType": "string",
          "name": "",
          "type": "string"
        }
      ],
      "stateMutability": "view",
      "type": "function",
      "constant": true
    },
    {
      "inputs": [
        {
          "internalType": "address",
          "name": "from",
          "type": "address"
        },
        {
          "internalType": "address",
          "name": "to",
          "type": "address"
        },
        {
          "internalType": "uint256",
          "name": "tokenId",
          "type": "uint256"
        }
      ],
      "name": "transferFrom",
      "outputs": [],
      "stateMutability": "nonpayable",
      "type": "function"
    },
    {
      "inputs": [
        {
          "internalType": "address",
          "name": "newOwner",
          "type": "address"
        }
      ],
      "name": "transferOwnership",
      "outputs": [],
      "stateMutability": "nonpayable",
      "type": "function"
    },
    {
      "inputs": [
        {
          "internalType": "uint256",
          "name": "_startTime",
          "type": "uint256"
        },
        {
          "internalType": "uint256",
          "name": "_endTime",
          "type": "uint256"
        },
        {
          "internalType": "string",
          "name": "_turfId",
          "type": "string"
        },
        {
          "internalType": "uint256",
          "name": "price",
          "type": "uint256"
        }
      ],
      "name": "mintBookingSlot",
      "outputs": [],
      "stateMutability": "nonpayable",
      "type": "function"
    },
    {
      "inputs": [
        {
          "internalType": "uint256",
          "name": "_bookingId",
          "type": "uint256"
        }
      ],
      "name": "bookTimeSlot",
      "outputs": [],
      "stateMutability": "payable",
      "type": "function",
      "payable": true
    },
    {
      "inputs": [
        {
          "internalType": "uint256",
          "name": "_bookingId",
          "type": "uint256"
        }
      ],
      "name": "getBookingDetails",
      "outputs": [
        {
          "internalType": "address",
          "name": "",
          "type": "address"
        },
        {
          "internalType": "uint256",
          "name": "",
          "type": "uint256"
        },
        {
          "internalType": "uint256",
          "name": "",
          "type": "uint256"
        },
        {
          "internalType": "string",
          "name": "",
          "type": "string"
        },
        {
          "internalType": "uint256",
          "name": "",
          "type": "uint256"
        },
        {
          "internalType": "string",
          "name": "",
          "type": "string"
        }
      ],
      "stateMutability": "view",
      "type": "function",
      "constant": true
    }
  ],
  "bytecode": "0x608060405234801561001057600080fd5b506040516120b83803806120b883398101604081905261002f91610127565b806040518060400160405280600c81526020016b2a3ab93323bab0b93234b0b760a11b815250604051806040016040528060058152602001641511d3919560da1b815250816000908161008291906101f6565b50600161008f82826101f6565b5050506001600160a01b0381166100c057604051631e4fbdf760e01b81526000600482015260240160405180910390fd5b6100c9816100d5565b505060016008556102b4565b600680546001600160a01b038381166001600160a01b0319831681179093556040519116919082907f8be0079c531659141344cd1fd0a4f28419497f9722a3daafe3b4186f6b6457e090600090a35050565b60006020828403121561013957600080fd5b81516001600160a01b038116811461015057600080fd5b9392505050565b634e487b7160e01b600052604160045260246000fd5b600181811c9082168061018157607f821691505b6020821081036101a157634e487b7160e01b600052602260045260246000fd5b50919050565b601f8211156101f157806000526020600020601f840160051c810160208510156101ce5750805b601f840160051c820191505b818110156101ee57600081556001016101da565b50505b505050565b81516001600160401b0381111561020f5761020f610157565b6102238161021d845461016d565b846101a7565b6020601f821160018114610257576000831561023f5750848201515b600019600385901b1c1916600184901b1784556101ee565b600084815260208120601f198516915b828110156102875787850151825560209485019460019092019101610267565b50848210156102a55786840151600019600387901b60f8161c191681555b50505050600190811b01905550565b611df5806102c36000396000f3fe6080604052600436106101355760003560e01c806370a08231116100ab57806395d89b411161006f57806395d89b4114610377578063a22cb4651461038c578063b88d4fde146103ac578063c87b56dd146103cc578063e985e9c5146103ec578063f2fde38b1461040c57600080fd5b806370a08231146102f1578063715018a61461031157806385d81ef1146103265780638da5cb5b146103395780638db3ed601461035757600080fd5b806323b872dd116100fd57806323b872dd1461021d57806326f20c791461023d5780632c2313fb1461026157806342842e0e146102815780634f558e79146102a15780636352211e146102d157600080fd5b806301ffc9a71461013a57806306fdde031461016f578063081812fc14610191578063095ea7b3146101c95780631dab301e146101eb575b600080fd5b34801561014657600080fd5b5061015a610155366004611742565b61042c565b60405190151581526020015b60405180910390f35b34801561017b57600080fd5b5061018461047e565b60405161016691906117af565b34801561019d57600080fd5b506101b16101ac3660046117c2565b610510565b6040516001600160a01b039091168152602001610166565b3480156101d557600080fd5b506101e96101e43660046117f7565b610539565b005b3480156101f757600080fd5b5061020b6102063660046117c2565b610548565b60405161016696959493929190611821565b34801561022957600080fd5b506101e9610238366004611873565b6106ae565b34801561024957600080fd5b5061025360085481565b604051908152602001610166565b34801561026d57600080fd5b506101e961027c366004611940565b61073e565b34801561028d57600080fd5b506101e961029c366004611873565b61096f565b3480156102ad57600080fd5b5061015a6102bc3660046117c2565b60096020526000908152604090205460ff1681565b3480156102dd57600080fd5b506101b16102ec3660046117c2565b61098f565b3480156102fd57600080fd5b5061025361030c3660046119ac565b61099a565b34801561031d57600080fd5b506101e96109e2565b6101e96103343660046117c2565b6109f6565b34801561034557600080fd5b506006546001600160a01b03166101b1565b34801561036357600080fd5b5061020b6103723660046117c2565b610be6565b34801561038357600080fd5b50610184610e24565b34801561039857600080fd5b506101e96103a73660046119c7565b610e33565b3480156103b857600080fd5b506101e96103c7366004611a03565b610e3e565b3480156103d857600080fd5b506101846103e73660046117c2565b610e55565b3480156103f857600080fd5b5061015a610407366004611a7f565b610eca565b34801561041857600080fd5b506101e96104273660046119ac565b610ef8565b60006001600160e01b031982166380ac58cd60e01b148061045d57506001600160e01b03198216635b5e139f60e01b145b8061047857506301ffc9a760e01b6001600160e01b03198316145b92915050565b60606000805461048d90611ab2565b80601f01602080910402602001604051908101604052809291908181526020018280546104b990611ab2565b80156105065780601f106104db57610100808354040283529160200191610506565b820191906000526020600020905b8154815290600101906020018083116104e957829003601f168201915b5050505050905090565b600061051b82610f36565b506000828152600460205260409020546001600160a01b0316610478565b610544828233610f6f565b5050565b6007818154811061055857600080fd5b600091825260209091206006909102018054600182015460028301546003840180546001600160a01b0390941695509193909290919061059790611ab2565b80601f01602080910402602001604051908101604052809291908181526020018280546105c390611ab2565b80156106105780601f106105e557610100808354040283529160200191610610565b820191906000526020600020905b8154815290600101906020018083116105f357829003601f168201915b50505050509080600401549080600501805461062b90611ab2565b80601f016020809104026020016040519081016040528092919081815260200182805461065790611ab2565b80156106a45780601f10610679576101008083540402835291602001916106a4565b820191906000526020600020905b81548152906001019060200180831161068757829003601f168201915b5050505050905086565b6001600160a01b0382166106dd57604051633250574960e11b8152600060048201526024015b60405180910390fd5b60006106ea838333610f7c565b9050836001600160a01b0316816001600160a01b031614610738576040516364283d7b60e01b81526001600160a01b03808616600483015260248201849052821660448201526064016106d4565b50505050565b7394a1517f8d18da08387ccc71b786def6e92c457333146107b05760405162461bcd60e51b815260206004820152602660248201527f4f6e6c7920746865206f776e65722063616e2063616c6c20746869732066756e6044820152656374696f6e2160d01b60648201526084016106d4565b60006107ba611075565b6040805160c081018252600080825260208201898152928201888152606083018581526080840188905260a0840189905260085460078054600181018255945284517fa66cc928b5edb82af9bd49922954155ab7b0942694bea4ce44661d9a8736c688600690950294850180546001600160a01b0319166001600160a01b0390921691909117815595517fa66cc928b5edb82af9bd49922954155ab7b0942694bea4ce44661d9a8736c68985015591517fa66cc928b5edb82af9bd49922954155ab7b0942694bea4ce44661d9a8736c68a8401555194955091939192849290917fa66cc928b5edb82af9bd49922954155ab7b0942694bea4ce44661d9a8736c68b01906108c79082611b33565b506080820151600482015560a082015160058201906108e69082611b33565b5050506108f33082611095565b6000818152600960205260408120805460ff19166001179055600880549161091a83611c08565b919050555060006001600160a01b0316817f0ad7796018499d67c8c35c3106956ad06c149fd1e61a51f90a9314118195e2e189898960405161095e93929190611c21565b60405180910390a350505050505050565b61098a83838360405180602001604052806000815250610e3e565b505050565b600061047882610f36565b60006001600160a01b0382166109c6576040516322718ad960e21b8152600060048201526024016106d4565b506001600160a01b031660009081526003602052604090205490565b6109ea6110fa565b6109f46000611127565b565b60008181526009602052604090205460ff16610a4d5760405162461bcd60e51b8152602060048201526016602482015275109bdbdada5b99c8191bd95cc81b9bdd08195e1a5cdd60521b60448201526064016106d4565b60006007610a5c600184611c49565b81548110610a6c57610a6c611c5c565b6000918252602090912060069091020180549091506001600160a01b031615610ad75760405162461bcd60e51b815260206004820152601860248201527f426f6f6b696e6720697320616c72656164792074616b656e000000000000000060448201526064016106d4565b8060040154341015610b2b5760405162461bcd60e51b815260206004820152601760248201527f496e73756666696369656e742066756e64732073656e7400000000000000000060448201526064016106d4565b610b36303384611179565b80546001600160a01b031916331781556004810154341115610b9157600481015433906108fc90610b679034611c49565b6040518115909202916000818181858888f19350505050158015610b8f573d6000803e3d6000fd5b505b336001600160a01b0316827f0ad7796018499d67c8c35c3106956ad06c149fd1e61a51f90a9314118195e2e18360010154846002015485600501604051610bda93929190611c72565b60405180910390a35050565b600081815260096020526040812054819081906060908290829060ff16610c485760405162461bcd60e51b8152602060048201526016602482015275109bdbdada5b99c8191bd95cc81b9bdd08195e1a5cdd60521b60448201526064016106d4565b60006007610c5760018a611c49565b81548110610c6757610c67611c5c565b90600052602060002090600602016040518060c00160405290816000820160009054906101000a90046001600160a01b03166001600160a01b03166001600160a01b031681526020016001820154815260200160028201548152602001600382018054610cd390611ab2565b80601f0160208091040260200160405190810160405280929190818152602001828054610cff90611ab2565b8015610d4c5780601f10610d2157610100808354040283529160200191610d4c565b820191906000526020600020905b815481529060010190602001808311610d2f57829003601f168201915b5050505050815260200160048201548152602001600582018054610d6f90611ab2565b80601f0160208091040260200160405190810160405280929190818152602001828054610d9b90611ab2565b8015610de85780601f10610dbd57610100808354040283529160200191610de8565b820191906000526020600020905b815481529060010190602001808311610dcb57829003601f168201915b5050509190925250508151602083015160408401516060850151608086015160a090960151939e929d50909b5099509297509550909350505050565b60606001805461048d90611ab2565b610544338383611229565b610e498484846106ae565b610738848484846112c8565b6060610e6082610f36565b506000610e7860408051602081019091526000815290565b90506000815111610e985760405180602001604052806000815250610ec3565b80610ea2846113f1565b604051602001610eb3929190611d0c565b6040516020818303038152906040525b9392505050565b6001600160a01b03918216600090815260056020908152604080832093909416825291909152205460ff1690565b610f006110fa565b6001600160a01b038116610f2a57604051631e4fbdf760e01b8152600060048201526024016106d4565b610f3381611127565b50565b6000818152600260205260408120546001600160a01b03168061047857604051637e27328960e01b8152600481018490526024016106d4565b61098a8383836001611484565b6000828152600260205260408120546001600160a01b0390811690831615610fa957610fa981848661158a565b6001600160a01b03811615610fe757610fc6600085600080611484565b6001600160a01b038116600090815260036020526040902080546000190190555b6001600160a01b03851615611016576001600160a01b0385166000908152600360205260409020805460010190555b60008481526002602052604080822080546001600160a01b0319166001600160a01b0389811691821790925591518793918516917fddf252ad1be2c89b69c2b068fc378daa952ba7f163c4a11628f55a4df523b3ef91a4949350505050565b60606040518060600160405280602a8152602001611d96602a9139905090565b6001600160a01b0382166110bf57604051633250574960e11b8152600060048201526024016106d4565b60006110cd83836000610f7c565b90506001600160a01b0381161561098a576040516339e3563760e11b8152600060048201526024016106d4565b6006546001600160a01b031633146109f45760405163118cdaa760e01b81523360048201526024016106d4565b600680546001600160a01b038381166001600160a01b0319831681179093556040519116919082907f8be0079c531659141344cd1fd0a4f28419497f9722a3daafe3b4186f6b6457e090600090a35050565b6001600160a01b0382166111a357604051633250574960e11b8152600060048201526024016106d4565b60006111b183836000610f7c565b90506001600160a01b0381166111dd57604051637e27328960e01b8152600481018390526024016106d4565b836001600160a01b0316816001600160a01b031614610738576040516364283d7b60e01b81526001600160a01b03808616600483015260248201849052821660448201526064016106d4565b6001600160a01b03821661125b57604051630b61174360e31b81526001600160a01b03831660048201526024016106d4565b6001600160a01b03838116600081815260056020908152604080832094871680845294825291829020805460ff191686151590811790915591519182527f17307eab39ab6107e8899845ad3d59bd9653f200f220920489ca2b5937696c31910160405180910390a3505050565b6001600160a01b0383163b1561073857604051630a85bd0160e11b81526001600160a01b0384169063150b7a029061130a903390889087908790600401611d3b565b6020604051808303816000875af1925050508015611345575060408051601f3d908101601f1916820190925261134291810190611d78565b60015b6113ae573d808015611373576040519150601f19603f3d011682016040523d82523d6000602084013e611378565b606091505b5080516000036113a657604051633250574960e11b81526001600160a01b03851660048201526024016106d4565b805181602001fd5b6001600160e01b03198116630a85bd0160e11b146113ea57604051633250574960e11b81526001600160a01b03851660048201526024016106d4565b5050505050565b606060006113fe836115ee565b600101905060008167ffffffffffffffff81111561141e5761141e6118b0565b6040519080825280601f01601f191660200182016040528015611448576020820181803683370190505b5090508181016020015b600019016f181899199a1a9b1b9c1cb0b131b232b360811b600a86061a8153600a850494508461145257509392505050565b808061149857506001600160a01b03821615155b1561155a5760006114a884610f36565b90506001600160a01b038316158015906114d45750826001600160a01b0316816001600160a01b031614155b80156114e757506114e58184610eca565b155b156115105760405163a9fbf51f60e01b81526001600160a01b03841660048201526024016106d4565b81156115585783856001600160a01b0316826001600160a01b03167f8c5be1e5ebec7d5bd14f71427d1e84f3dd0314c0f7b2291e5b200ac8c7c3b92560405160405180910390a45b505b5050600090815260046020526040902080546001600160a01b0319166001600160a01b0392909216919091179055565b6115958383836116c6565b61098a576001600160a01b0383166115c357604051637e27328960e01b8152600481018290526024016106d4565b60405163177e802f60e01b81526001600160a01b0383166004820152602481018290526044016106d4565b60008072184f03e93ff9f4daa797ed6e38ed64bf6a1f0160401b831061162d5772184f03e93ff9f4daa797ed6e38ed64bf6a1f0160401b830492506040015b6d04ee2d6d415b85acef81000000008310611659576d04ee2d6d415b85acef8100000000830492506020015b662386f26fc10000831061167757662386f26fc10000830492506010015b6305f5e100831061168f576305f5e100830492506008015b61271083106116a357612710830492506004015b606483106116b5576064830492506002015b600a83106104785760010192915050565b60006001600160a01b038316158015906117245750826001600160a01b0316846001600160a01b0316148061170057506117008484610eca565b8061172457506000828152600460205260409020546001600160a01b038481169116145b949350505050565b6001600160e01b031981168114610f3357600080fd5b60006020828403121561175457600080fd5b8135610ec38161172c565b60005b8381101561177a578181015183820152602001611762565b50506000910152565b6000815180845261179b81602086016020860161175f565b601f01601f19169290920160200192915050565b602081526000610ec36020830184611783565b6000602082840312156117d457600080fd5b5035919050565b80356001600160a01b03811681146117f257600080fd5b919050565b6000806040838503121561180a57600080fd5b611813836117db565b946020939093013593505050565b60018060a01b038716815285602082015284604082015260c06060820152600061184e60c0830186611783565b84608084015282810360a08401526118668185611783565b9998505050505050505050565b60008060006060848603121561188857600080fd5b611891846117db565b925061189f602085016117db565b929592945050506040919091013590565b634e487b7160e01b600052604160045260246000fd5b60008067ffffffffffffffff8411156118e1576118e16118b0565b50604051601f19601f85018116603f0116810181811067ffffffffffffffff82111715611910576119106118b0565b60405283815290508082840185101561192857600080fd5b83836020830137600060208583010152509392505050565b6000806000806080858703121561195657600080fd5b8435935060208501359250604085013567ffffffffffffffff81111561197b57600080fd5b8501601f8101871361198c57600080fd5b61199b878235602084016118c6565b949793965093946060013593505050565b6000602082840312156119be57600080fd5b610ec3826117db565b600080604083850312156119da57600080fd5b6119e3836117db565b9150602083013580151581146119f857600080fd5b809150509250929050565b60008060008060808587031215611a1957600080fd5b611a22856117db565b9350611a30602086016117db565b925060408501359150606085013567ffffffffffffffff811115611a5357600080fd5b8501601f81018713611a6457600080fd5b611a73878235602084016118c6565b91505092959194509250565b60008060408385031215611a9257600080fd5b611a9b836117db565b9150611aa9602084016117db565b90509250929050565b600181811c90821680611ac657607f821691505b602082108103611ae657634e487b7160e01b600052602260045260246000fd5b50919050565b601f82111561098a57806000526020600020601f840160051c81016020851015611b135750805b601f840160051c820191505b818110156113ea5760008155600101611b1f565b815167ffffffffffffffff811115611b4d57611b4d6118b0565b611b6181611b5b8454611ab2565b84611aec565b6020601f821160018114611b955760008315611b7d5750848201515b600019600385901b1c1916600184901b1784556113ea565b600084815260208120601f198516915b82811015611bc55787850151825560209485019460019092019101611ba5565b5084821015611be35786840151600019600387901b60f8161c191681555b50505050600190811b01905550565b634e487b7160e01b600052601160045260246000fd5b600060018201611c1a57611c1a611bf2565b5060010190565b838152826020820152606060408201526000611c406060830184611783565b95945050505050565b8181038181111561047857610478611bf2565b634e487b7160e01b600052603260045260246000fd5b838152826020820152606060408201526000808354611c9081611ab2565b8060608601526001821660008114611caf5760018114611ccb57611cff565b60ff1983166080870152608082151560051b8701019350611cff565b86600052602060002060005b83811015611cf657815488820160800152600190910190602001611cd7565b87016080019450505b5091979650505050505050565b60008351611d1e81846020880161175f565b835190830190611d3281836020880161175f565b01949350505050565b6001600160a01b0385811682528416602082015260408101839052608060608201819052600090611d6e90830184611783565b9695505050505050565b600060208284031215611d8a57600080fd5b8151610ec38161172c56fe68747470733a2f2f6170692e6e706f696e742e696f2f3735666133633762303836323834393835633230a2646970667358221220e1236f8b8a604a453495be296bd5793c435c24cedf44b178d4bbfa3fb9408df864736f6c634300081c0033",
  "immutableReferences": {},
  "source": "// SPDX-License-Identifier: MIT\npragma solidity ^0.8.17;\n\nimport \"@openzeppelin/contracts/token/ERC721/ERC721.sol\";\nimport \"@openzeppelin/contracts/access/Ownable.sol\";\nimport \"@openzeppelin/contracts/utils/Strings.sol\";\n\ncontract TurfGuardian is ERC721, Ownable {\n    struct Booking {\n        address booker;\n        uint256 startTime;\n        uint256 endTime;\n        string metadataURI;\n        uint256 price;\n        string turfId;\n    }\n\n    Booking[] public bookings;\n    uint256 public nextBookingId;\n    mapping(uint256 => bool) public exists;\n\n    event BookingCreated(\n        uint256 indexed bookingId,\n        address indexed booker,\n        uint256 startTime,\n        uint256 endTime,\n        string turfId\n    );\n\n    constructor(\n        address initialOwner\n    ) ERC721(\"TurfGuardian\", \"TGNFT\") Ownable(initialOwner) {\n        nextBookingId = 1;\n    }\n\n    modifier onlyCustomOwner() {\n        require(\n            msg.sender == 0x94A1517f8D18dA08387CCC71B786Def6E92c4573,\n            \"Only the owner can call this function!\"\n        );\n        _;\n    }\n\n    function mintBookingSlot(\n        uint256 _startTime,\n        uint256 _endTime,\n        string memory _turfId,\n        uint256 price\n    ) external onlyCustomOwner {\n        string memory apiResponse = fetchDataFromAPI();\n        Booking memory newBooking = Booking({\n            booker: address(0),\n            startTime: _startTime,\n            endTime: _endTime,\n            metadataURI: apiResponse,\n            price: price,\n            turfId: _turfId\n        });\n\n        uint256 bookingId = nextBookingId;\n        bookings.push(newBooking);\n        _mint(address(this), bookingId);\n        exists[bookingId] = true;\n        nextBookingId++;\n\n        emit BookingCreated(\n            bookingId,\n            address(0),\n            _startTime,\n            _endTime,\n            _turfId\n        );\n    }\n\n    function bookTimeSlot(uint256 _bookingId) external payable {\n        require(exists[_bookingId], \"Booking does not exist\");\n        Booking storage booking = bookings[_bookingId - 1];\n        require(booking.booker == address(0), \"Booking is already taken\");\n        require(msg.value >= booking.price, \"Insufficient funds sent\");\n        _transfer(address(this), msg.sender, _bookingId);\n        booking.booker = msg.sender;\n\n        if (msg.value > booking.price) {\n            payable(msg.sender).transfer(msg.value - booking.price);\n        }\n\n        emit BookingCreated(\n            _bookingId,\n            msg.sender,\n            booking.startTime,\n            booking.endTime,\n            booking.turfId\n        );\n    }\n\n    function getBookingDetails(\n        uint256 _bookingId\n    )\n        external\n        view\n        returns (\n            address,\n            uint256,\n            uint256,\n            string memory,\n            uint256,\n            string memory\n        )\n    {\n        require(exists[_bookingId], \"Booking does not exist\");\n        Booking memory booking = bookings[_bookingId - 1];\n        return (\n            booking.booker,\n            booking.startTime,\n            booking.endTime,\n            booking.metadataURI,\n            booking.price,\n            booking.turfId\n        );\n    }\n\n    function fetchDataFromAPI() internal pure returns (string memory) {\n        return \"https://api.npoint.io/75fa3c7b086284985c20\";\n    }\n}\n",
  "sourcePath": "/workspace/contracts/TurfGuardian.sol",
  "compiler": {
    "name": "solc",
    "version": "0.8.28+commit.7893614a.Emscripten.clang"
  },
  "schemaVersion": "3.4.10",
  "updatedAt": "2024-11-04T18:17:20.830Z",
  "networkType": "ethereum",
  "devdoc": {
    "errors": {
      "ERC721IncorrectOwner(address,uint256,address)": [
        {
          "details": "Indicates an error related to the ownership over a particular token. Used in transfers.",
          "params": {
            "owner": "Address of the current owner of a token.",
            "sender": "Address whose tokens are being transferred.",
            "tokenId": "Identifier number of a token."
          }
        }
      ],
      "ERC721InsufficientApproval(address,uint256)": [
        {
          "details": "Indicates a failure with the `operator`s approval. Used in transfers.",
          "params": {
            "operator": "Address that may be allowed to operate on tokens without being their owner.",
            "tokenId": "Identifier number of a token."
          }
        }
      ],
      "ERC721InvalidApprover(address)": [
        {
          "details": "Indicates a failure with the `approver` of a token to be approved. Used in approvals.",
          "params": {
            "approver": "Address initiating an approval operation."
          }
        }
      ],
      "ERC721InvalidOperator(address)": [
        {
          "details": "Indicates a failure with the `operator` to be approved. Used in approvals.",
          "params": {
            "operator": "Address that may be allowed to operate on tokens without being their owner."
          }
        }
      ],
      "ERC721InvalidOwner(address)": [
        {
          "details": "Indicates that an address can't be an owner. For example, `address(0)` is a forbidden owner in EIP-20. Used in balance queries.",
          "params": {
            "owner": "Address of the current owner of a token."
          }
        }
      ],
      "ERC721InvalidReceiver(address)": [
        {
          "details": "Indicates a failure with the token `receiver`. Used in transfers.",
          "params": {
            "receiver": "Address to which tokens are being transferred."
          }
        }
      ],
      "ERC721InvalidSender(address)": [
        {
          "details": "Indicates a failure with the token `sender`. Used in transfers.",
          "params": {
            "sender": "Address whose tokens are being transferred."
          }
        }
      ],
      "ERC721NonexistentToken(uint256)": [
        {
          "details": "Indicates a `tokenId` whose `owner` is the zero address.",
          "params": {
            "tokenId": "Identifier number of a token."
          }
        }
      ],
      "OwnableInvalidOwner(address)": [
        {
          "details": "The owner is not a valid owner account. (eg. `address(0)`)"
        }
      ],
      "OwnableUnauthorizedAccount(address)": [
        {
          "details": "The caller account is not authorized to perform an operation."
        }
      ]
    },
    "events": {
      "Approval(address,address,uint256)": {
        "details": "Emitted when `owner` enables `approved` to manage the `tokenId` token."
      },
      "ApprovalForAll(address,address,bool)": {
        "details": "Emitted when `owner` enables or disables (`approved`) `operator` to manage all of its assets."
      },
      "Transfer(address,address,uint256)": {
        "details": "Emitted when `tokenId` token is transferred from `from` to `to`."
      }
    },
    "kind": "dev",
    "methods": {
      "approve(address,uint256)": {
        "details": "See {IERC721-approve}."
      },
      "balanceOf(address)": {
        "details": "See {IERC721-balanceOf}."
      },
      "getApproved(uint256)": {
        "details": "See {IERC721-getApproved}."
      },
      "isApprovedForAll(address,address)": {
        "details": "See {IERC721-isApprovedForAll}."
      },
      "name()": {
        "details": "See {IERC721Metadata-name}."
      },
      "owner()": {
        "details": "Returns the address of the current owner."
      },
      "ownerOf(uint256)": {
        "details": "See {IERC721-ownerOf}."
      },
      "renounceOwnership()": {
        "details": "Leaves the contract without owner. It will not be possible to call `onlyOwner` functions. Can only be called by the current owner. NOTE: Renouncing ownership will leave the contract without an owner, thereby disabling any functionality that is only available to the owner."
      },
      "safeTransferFrom(address,address,uint256)": {
        "details": "See {IERC721-safeTransferFrom}."
      },
      "safeTransferFrom(address,address,uint256,bytes)": {
        "details": "See {IERC721-safeTransferFrom}."
      },
      "setApprovalForAll(address,bool)": {
        "details": "See {IERC721-setApprovalForAll}."
      },
      "supportsInterface(bytes4)": {
        "details": "See {IERC165-supportsInterface}."
      },
      "symbol()": {
        "details": "See {IERC721Metadata-symbol}."
      },
      "tokenURI(uint256)": {
        "details": "See {IERC721Metadata-tokenURI}."
      },
      "transferFrom(address,address,uint256)": {
        "details": "See {IERC721-transferFrom}."
      },
      "transferOwnership(address)": {
        "details": "Transfers ownership of the contract to a new account (`newOwner`). Can only be called by the current owner."
      }
    },
    "version": 1
  },
  "userdoc": {
    "kind": "user",
    "methods": {},
    "version": 1
  }
}